{
  "contractName": "QuestionPurchase",
  "abi": [
    {
      "constant": false,
      "inputs": [
        {
          "name": "questionId",
          "type": "uint256"
        },
        {
          "name": "qdate",
          "type": "uint256"
        }
      ],
      "name": "purchase",
      "outputs": [
        {
          "name": "",
          "type": "uint256"
        }
      ],
      "payable": false,
      "stateMutability": "nonpayable",
      "type": "function"
    },
    {
      "constant": false,
      "inputs": [
        {
          "name": "helpful",
          "type": "uint256[]"
        }
      ],
      "name": "reviewQuestions",
      "outputs": [
        {
          "name": "",
          "type": "uint256"
        }
      ],
      "payable": false,
      "stateMutability": "nonpayable",
      "type": "function"
    },
    {
      "constant": true,
      "inputs": [],
      "name": "getQuestionLength",
      "outputs": [
        {
          "name": "",
          "type": "uint256"
        }
      ],
      "payable": false,
      "stateMutability": "view",
      "type": "function"
    },
    {
      "constant": true,
      "inputs": [
        {
          "name": "index",
          "type": "uint256"
        }
      ],
      "name": "getQuestionAtIndex",
      "outputs": [
        {
          "name": "",
          "type": "uint256"
        },
        {
          "name": "",
          "type": "uint256"
        }
      ],
      "payable": false,
      "stateMutability": "view",
      "type": "function"
    },
    {
      "constant": true,
      "inputs": [
        {
          "name": "index",
          "type": "uint256"
        }
      ],
      "name": "getTimeAtIndex",
      "outputs": [
        {
          "name": "",
          "type": "uint256"
        }
      ],
      "payable": false,
      "stateMutability": "view",
      "type": "function"
    }
  ],
  "bytecode": "0x608060405234801561001057600080fd5b5061071c806100206000396000f30060806040526004361061006d576000357c0100000000000000000000000000000000000000000000000000000000900463ffffffff16806319e874b11461007257806370876c981461009d5780637dd323ee146100e8578063827e30a714610129578063f40c33e514610171575b600080fd5b34801561007e57600080fd5b506100876101eb565b6040518082815260200191505060405180910390f35b3480156100a957600080fd5b506100d26004803603810190808035906020019092919080359060200190929190505050610237565b6040518082815260200191505060405180910390f35b3480156100f457600080fd5b50610113600480360381019080803590602001909291905050506103e2565b6040518082815260200191505060405180910390f35b34801561013557600080fd5b5061015460048036038101908080359060200190929190505050610444565b604051808381526020018281526020019250505060405180910390f35b34801561017d57600080fd5b506101d560048036038101908080359060200190820180359060200190808060200260200160405190810160405280939291908181526020018383602002808284378201915050505050509192919290505050610502565b6040518082815260200191505060405180910390f35b60008060003373ffffffffffffffffffffffffffffffffffffffff1673ffffffffffffffffffffffffffffffffffffffff16815260200190815260200160002060000180549050905090565b600080600090505b6000803373ffffffffffffffffffffffffffffffffffffffff1673ffffffffffffffffffffffffffffffffffffffff1681526020019081526020016000206001018054905081101561030157426000803373ffffffffffffffffffffffffffffffffffffffff1673ffffffffffffffffffffffffffffffffffffffff168152602001908152602001600020600101828154811015156102da57fe5b906000526020600020015410156102f457600091506103db565b808060010191505061023f565b6000803373ffffffffffffffffffffffffffffffffffffffff1673ffffffffffffffffffffffffffffffffffffffff1681526020019081526020016000206000018490806001815401808255809150509060018203906000526020600020016000909192909190915055506000803373ffffffffffffffffffffffffffffffffffffffff1673ffffffffffffffffffffffffffffffffffffffff1681526020019081526020016000206001018390806001815401808255809150509060018203906000526020600020016000909192909190915055508391505b5092915050565b60008060003373ffffffffffffffffffffffffffffffffffffffff1673ffffffffffffffffffffffffffffffffffffffff1681526020019081526020016000206001018281548110151561043257fe5b90600052602060002001549050919050565b6000806000803373ffffffffffffffffffffffffffffffffffffffff1673ffffffffffffffffffffffffffffffffffffffff1681526020019081526020016000206000018381548110151561049557fe5b90600052602060002001546000803373ffffffffffffffffffffffffffffffffffffffff1673ffffffffffffffffffffffffffffffffffffffff168152602001908152602001600020600101848154811015156104ee57fe5b906000526020600020015491509150915091565b6000606060008060608060009350600092505b6000803373ffffffffffffffffffffffffffffffffffffffff1673ffffffffffffffffffffffffffffffffffffffff168152602001908152602001600020600101805490508310156105f357426000803373ffffffffffffffffffffffffffffffffffffffff1673ffffffffffffffffffffffffffffffffffffffff168152602001908152602001600020600101848154811015156105b057fe5b90600052602060002001541115156105e6578285858151811015156105d157fe5b90602001906020020181815250506001840193505b8280600101935050610515565b60008060003373ffffffffffffffffffffffffffffffffffffffff1673ffffffffffffffffffffffffffffffffffffffff16815260200190815260200160002060000181610641919061069f565b5060008060003373ffffffffffffffffffffffffffffffffffffffff1673ffffffffffffffffffffffffffffffffffffffff16815260200190815260200160002060010181610690919061069f565b50600095505050505050919050565b8154818355818111156106c6578183600052602060002091820191016106c591906106cb565b5b505050565b6106ed91905b808211156106e95760008160009055506001016106d1565b5090565b905600a165627a7a723058202c4ffe3de78d55ceb7cb24514838faf77945ab698f100219bfabc57caf0215500029",
  "source": "pragma solidity ^0.4.4;\n\ncontract QuestionPurchase {\n\n    struct questionBundle{\n        uint[] questionAccess;\n\t\tuint[] timeAccess;\n    }\n\n    mapping(address => questionBundle) questionList;\n\nfunction purchase(uint questionId, uint qdate) public returns (uint) {\n  for (uint i = 0; i < questionList[msg.sender].timeAccess.length; i++) {\n    if (questionList[msg.sender].timeAccess[i] < now) {\n  \t  return 0;\n\t }\n  }\n  questionList[msg.sender].questionAccess.push(questionId);\n  questionList[msg.sender].timeAccess.push(qdate);\n  return questionId;\n}\n\nfunction reviewQuestions(uint[] helpful) public returns (uint) {\n\tuint[] memory expired;\n\tuint j = 0;\n\tfor (uint i = 0; i < questionList[msg.sender].timeAccess.length; i++) {\n\t    if (questionList[msg.sender].timeAccess[i] <= now) {\n  \t\t\texpired[j] = i;\n\t\t\tj += 1;\n\t\t}\n\t}\n\tuint[] memory newQuestionAc;\n\tuint[] memory newTimeAc;\n\t//j = 0;\n\t//for (i = 0; i < questionList[msg.sender].timeAccess.length; i++) {\n\t    //if (questionList[msg.sender].timeAccess[i] > now) {\n  \t\t\t//questionList[msg.sender].questionAccess[j] = questionList[msg.sender].questionAccess[i];\n\t\t\t//questionList[msg.sender].timeAccess[j] = questionList[msg.sender].timeAccess[i];\n\t\t//\tj += 1;\n\t\t//}\n\t//}\n\tquestionList[msg.sender].questionAccess.length = 0;\n\tquestionList[msg.sender].timeAccess.length = 0;\n\treturn 0;\n\n}\n\n//distributes token\n//Retrieving the questions\n    //broken\nfunction getQuestionLength() constant returns (uint) {\n  return questionList[msg.sender].questionAccess.length;\n}\n\nfunction getQuestionAtIndex(uint index) constant returns (uint, uint){\n    return (questionList[msg.sender].questionAccess[index], questionList[msg.sender].timeAccess[index]);\n}\n\nfunction getTimeAtIndex(uint index) constant returns (uint){\n    return questionList[msg.sender].timeAccess[index];\n}\n\n}",
  "sourcePath": "/mnt/c/coding/cs144/EthereumExchange/contracts/QuestionPurchase.sol",
  "compiler": {
    "name": "solc",
    "version": "0.4.23+commit.124ca40d.Emscripten.clang"
  },
  "schemaVersion": "2.0.0",
  "updatedAt": "2018-05-03T04:02:58.555Z"
}