{
  "contractName": "QuestionPurchase",
  "abi": [
    {
      "constant": false,
      "inputs": [],
      "name": "getPurchasers",
      "outputs": [
        {
          "name": "",
          "type": "address[16]"
        }
      ],
      "payable": false,
      "stateMutability": "nonpayable",
      "type": "function"
    },
    {
      "constant": true,
      "inputs": [
        {
          "name": "",
          "type": "uint256"
        }
      ],
      "name": "purchasers",
      "outputs": [
        {
          "name": "",
          "type": "address"
        }
      ],
      "payable": false,
      "stateMutability": "view",
      "type": "function"
    },
    {
      "constant": false,
      "inputs": [
        {
          "name": "questionId",
          "type": "uint256"
        }
      ],
      "name": "purchase",
      "outputs": [
        {
          "name": "",
          "type": "uint256"
        }
      ],
      "payable": false,
      "stateMutability": "nonpayable",
      "type": "function"
    }
  ],
  "bytecode": "0x6060604052341561000f57600080fd5b6102dd8061001e6000396000f300606060405260043610610057576000357c0100000000000000000000000000000000000000000000000000000000900463ffffffff1680630409eb851461005c57806312923b65146100ad578063efef39a114610110575b600080fd5b341561006757600080fd5b61006f610147565b6040518082601060200280838360005b8381101561009a57808201518184015260208101905061007f565b5050505090500191505060405180910390f35b34156100b857600080fd5b6100ce60048080359060200190919050506101c8565b604051808273ffffffffffffffffffffffffffffffffffffffff1673ffffffffffffffffffffffffffffffffffffffff16815260200191505060405180910390f35b341561011b57600080fd5b61013160048080359060200190919050506101fd565b6040518082815260200191505060405180910390f35b61014f610272565b60006010806020026040519081016040528092919082601080156101be576020028201915b8160009054906101000a900473ffffffffffffffffffffffffffffffffffffffff1673ffffffffffffffffffffffffffffffffffffffff1681526020019060010190808311610174575b5050505050905090565b6000816010811015156101d757fe5b016000915054906101000a900473ffffffffffffffffffffffffffffffffffffffff1681565b60008082101580156102105750600f8211155b151561021b57600080fd5b3360008360108110151561022b57fe5b0160006101000a81548173ffffffffffffffffffffffffffffffffffffffff021916908373ffffffffffffffffffffffffffffffffffffffff160217905550819050919050565b610200604051908101604052806010905b600073ffffffffffffffffffffffffffffffffffffffff1681526020019060019003908161028357905050905600a165627a7a7230582010c5dae230b69f326325b059fc09a2c27b665212707a023cc956b71155004e290029",
  "source": "pragma solidity ^0.4.4;\r\n\r\ncontract QuestionPurchase {\r\n\taddress[16] public purchasers;\r\n\t// Adopting a pet\r\nfunction purchase(uint questionId) public returns (uint) {\r\n  require(questionId >= 0 && questionId <= 15);\r\n\r\n  purchasers[questionId] = msg.sender;\r\n\r\n  return questionId;\r\n}\r\n\r\n// Retrieving the adopters\r\nfunction getPurchasers() public returns (address[16]) {\r\n  return purchasers;\r\n}\r\n\r\n\r\n}",
  "sourcePath": "C:\\coding\\cs143\\final\\EthereumExchange\\contracts\\QuestionPurchase.sol",
  "compiler": {
    "name": "solc",
    "version": "0.4.18+commit.9cf6e910.Emscripten.clang"
  },
  "schemaVersion": "1.0.1",
  "updatedAt": "2017-12-06T19:41:38.071Z"
}