{
  "contractName": "QuestionPurchase",
  "abi": [
    {
      "constant": true,
      "inputs": [],
      "name": "getQuestionLength",
      "outputs": [
        {
          "name": "",
          "type": "uint256"
        }
      ],
      "payable": false,
      "stateMutability": "view",
      "type": "function"
    },
    {
      "constant": true,
      "inputs": [
        {
          "name": "index",
          "type": "uint256"
        }
      ],
      "name": "getQuestionAtIndex",
      "outputs": [
        {
          "name": "",
          "type": "uint256"
        }
      ],
      "payable": false,
      "stateMutability": "view",
      "type": "function"
    },
    {
      "constant": false,
      "inputs": [
        {
          "name": "questionId",
          "type": "uint256"
        }
      ],
      "name": "purchase",
      "outputs": [
        {
          "name": "",
          "type": "uint256"
        }
      ],
      "payable": false,
      "stateMutability": "nonpayable",
      "type": "function"
    },
    {
      "constant": false,
      "inputs": [
        {
          "name": "receiver",
          "type": "address"
        },
        {
          "name": "amount",
          "type": "uint256"
        }
      ],
      "name": "mint",
      "outputs": [],
      "payable": false,
      "stateMutability": "nonpayable",
      "type": "function"
    },
    {
      "constant": false,
      "inputs": [],
      "name": "questionExchange",
      "outputs": [],
      "payable": false,
      "stateMutability": "nonpayable",
      "type": "function"
    },
    {
      "constant": false,
      "inputs": [
        {
          "name": "receiver",
          "type": "address"
        },
        {
          "name": "amount",
          "type": "uint256"
        }
      ],
      "name": "send",
      "outputs": [],
      "payable": false,
      "stateMutability": "nonpayable",
      "type": "function"
    },
    {
      "constant": false,
      "inputs": [
        {
          "name": "questionId",
          "type": "uint256"
        }
      ],
      "name": "purchase",
      "outputs": [
        {
          "name": "",
          "type": "uint256"
        }
      ],
      "payable": false,
      "stateMutability": "nonpayable",
      "type": "function"
    },
    {
      "anonymous": false,
      "inputs": [
        {
          "indexed": false,
          "name": "from",
          "type": "address"
        },
        {
          "indexed": false,
          "name": "to",
          "type": "address"
        },
        {
          "indexed": false,
          "name": "amount",
          "type": "uint256"
        }
      ],
      "name": "Sent",
      "type": "event"
    }
  ],
  "bytecode": "0x6060604052341561000f57600080fd5b6102918061001e6000396000f300606060405260043610610057576000357c0100000000000000000000000000000000000000000000000000000000900463ffffffff16806319e874b11461005c578063827e30a714610085578063efef39a1146100bc575b600080fd5b341561006757600080fd5b61006f6100f3565b6040518082815260200191505060405180910390f35b341561009057600080fd5b6100a6600480803590602001909190505061013f565b6040518082815260200191505060405180910390f35b34156100c757600080fd5b6100dd60048080359060200190919050506101a2565b6040518082815260200191505060405180910390f35b60008060003373ffffffffffffffffffffffffffffffffffffffff1673ffffffffffffffffffffffffffffffffffffffff16815260200190815260200160002060000180549050905090565b60008060003373ffffffffffffffffffffffffffffffffffffffff1673ffffffffffffffffffffffffffffffffffffffff1681526020019081526020016000206000018281548110151561018f57fe5b9060005260206000209001549050919050565b60008060003373ffffffffffffffffffffffffffffffffffffffff1673ffffffffffffffffffffffffffffffffffffffff16815260200190815260200160002060000180548060010182816101f79190610214565b916000526020600020900160008490919091505550819050919050565b81548183558181151161023b5781836000526020600020918201910161023a9190610240565b5b505050565b61026291905b8082111561025e576000816000905550600101610246565b5090565b905600a165627a7a723058202d9c886dfd9a362d71d3d28c573ac2a4dae87c312789cae8f3e9921cdc60916a0029",
  "source": "pragma solidity ^0.4.4;\n\ncontract QuestionPurchase {\n\n    struct questionBundle{\n        uint[] questionAccess;\n    }\n\n    mapping(address => questionBundle) questionList;\n\nfunction purchase(uint questionId) public returns (uint) {\n\n  questionList[msg.sender].questionAccess.push(questionId);\n\n  return questionId;\n}\n\n\n//distributes token\n//Retrieving the adopters\n    //broken\nfunction getQuestionLength() constant returns (uint) {\n  return questionList[msg.sender].questionAccess.length;\n}\n\nfunction getQuestionAtIndex(uint index) constant returns (uint){\n    return questionList[msg.sender].questionAccess[index];\n}\n\n\n}",
  "sourcePath": "/Users/neil/IdeaProjects/EthereumExchange/contracts/QuestionPurchase.sol",
  "compiler": {
    "name": "solc",
    "version": "0.4.18+commit.9cf6e910.Emscripten.clang"
  },
  "schemaVersion": "1.0.1",
  "updatedAt": "2017-12-14T08:21:39.023Z"
}